:020000040000fa
:080000000002040000000000f2
:020000040000fa
:100008009a0200009a0200009a0200009a02000078
:100018009a0200009a0200009a0200009a02000068
:100028009a0200009a0200009a0200009a02000058
:100038009a0200009a0200009a0200009a02000048
:100048009a0200009a0200009a0200009a02000038
:100058009a0200009a0200009a0200009a02000028
:100068009a0200009a0200009a0200009a02000018
:100078009a0200009a0200009a0200009a02000008
:100088009a0200009a0200009a0200009a020000f8
:100098009a0200009a020000c00700009a020000bd
:1000a8009a0200009a0200009a0200009a020000d8
:1000b8009a0200009a0200009a0200009a020000c8
:1000c8009a0200009a0200009a0200009a020000b8
:1000d8009a0200009a0200009a0200009a020000a8
:1000e8009a0200009a0200009a0200009a02000098
:1000f8009a0200009a0200009a0200009a02000088
:100108009a0200009a0200009a0200009a02000077
:100118009a0200009a0200009a0200009a02000067
:100128009a0200009a0200009a0200009a02000057
:100138009a0200009a0200009a0200009a02000047
:100148009a0200009a0200009a0200009a02000037
:100158009a0200009a0200009a0200009a02000027
:100168009a0200009a0200009a0200009a02000017
:100178009a0200009a0200009a0200009a02000007
:100188009a0200009a0200009a0200009a020000f7
:100198009a0200009a0200009a0200009a020000e7
:1001a8009a0200009a0200009a0200009a020000d7
:1001b8009a0200009a0200009a0200009a020000c7
:1001c8009a0200009a0200009a0200009a020000b7
:1001d8009a0200009a0200009a0200009a020000a7
:1001e8009a0200009a0200009a0200009a02000097
:0801f8009a0200009a020000c7
:020000040000fa
:100208009a0200009a0200009a0200009a02000076
:100218009a0200009a0200009a0200009a02000066
:100228009a0200009a0200009a0200009a02000056
:100238009a0200009a0200009a0200009a02000046
:100248009a0200009a0200009a0200009a02000036
:100258009a0200009a0200009a0200009a02000026
:100268009a0200009a0200009a0200009a02000016
:100278009a0200009a0200009a0200009a02000006
:100288009a0200009a0200009a0200009a020000f6
:100298009a0200009a020000c00700009a020000bb
:1002a8009a0200009a0200009a0200009a020000d6
:1002b8009a0200009a0200009a0200009a020000c6
:1002c8009a0200009a0200009a0200009a020000b6
:1002d8009a0200009a0200009a0200009a020000a6
:1002e8009a0200009a0200009a0200009a02000096
:1002f8009a0200009a0200009a0200009a02000086
:100308009a0200009a0200009a0200009a02000075
:100318009a0200009a0200009a0200009a02000065
:100328009a0200009a0200009a0200009a02000055
:100338009a0200009a0200009a0200009a02000045
:100348009a0200009a0200009a0200009a02000035
:100358009a0200009a0200009a0200009a02000025
:100368009a0200009a0200009a0200009a02000015
:100378009a0200009a0200009a0200009a02000005
:100388009a0200009a0200009a0200009a020000f5
:100398009a0200009a0200009a0200009a020000e5
:1003a8009a0200009a0200009a0200009a020000d5
:1003b8009a0200009a0200009a0200009a020000c5
:1003c8009a0200009a0200009a0200009a020000b5
:1003d8009a0200009a0200009a0200009a020000a5
:1003e8009a0200009a0200009a0200009a02000095
:0803f8009a0200009a020000c5
:020000040000fa
:100400004f8020000e7f22000e01880000000000b7
:10041000000020000000e000020032000001200087
:10042000200288000c000700408c20000100200002
:1004300011000700000020000000e0000200320070
:100440000000020000000000200702000000000081
:100450000040da000000fe004440a9000000200037
:100460000000e0000300320000002000a00188002e
:100470004440a80000000600910188008000780038
:100480000000eb0015003700e280400032a0b4000d
:100490009101ba00e280400032a0b4009102ba009b
:1004a000e280400032a0b4000002eb00472bde00e7
:1004b000f507b200602ce10004003a000059eb009f
:1004c0008301e900fdff3e00040037006128e100e0
:1004d000010032000082eb00040007001101ba00a5
:1004e0000200e000e8ff3a00000006003159ba00bf
:1004f0008301e9000c0032002159ba008301e900b0
:10050000080032000400e00003003a00e2804000ee
:1005100032a0b400f5ff370011d9ba008301e90019
:10052000faff3a008100e800e180400032a0b40008
:10053000000006000040da000000fe000001be00de
:100540001b0007000470a70003f0a10003f8a3003c
:1005500013003a006509b1001000320009003500af
:100560006928e100020035000100280000000500b4
:1005700000004000818048008502e900fcff3a004d
:1005800000000600f88f4200050035008100d10010
:100590000080d3008502e800fcff3a00000006005e
:1005a0008000eb00000005006011b8004900370032
:1005b000c70ade00f107b200f50fb20008003200f2
:1005c000e1cf4200020032000170a00024000500cb
:1005d000810f70000100320004080500440005008e
:1005e000810f700002003a00140005008502e90046
:1005f0000000400081c04800fcff3b000170a000eb
:1006000024000500889fbe008a9fbe008c1f7800d2
:10061000850007008c00330003866c006450e10005
:10062000240032006420e100270032006150e10024
:10063000220032006120e100210032008b8542005f
:10064000eb07b1000134b800003ab80008044200da
:1006500089844a00013ab8000030b8008880400020
:1006600009014a0004003300000040008180480076
:10067000020149008b05e900c909dd008301700012
:100680000100320013002000c814de004814dd0011
:100690004709de001200b200c808de0008847000be
:1006a0003b00070001f0a1000cf0a70001f0a00042
:1006b0006e0037006120e100700032000801be00ca
:1006c0000200be00f7ff37006150e100fcff3a0076
:1006d0006a003700889fbe008a9fbe0000827000bb
:1006e0000402710004827100260032000004be0082
:1006f0000200be006011b8006b09200095022000c6
:100700000182cf000a0039000541b1000082cf000c
:10071000070039000541b1000982cf00040039000b
:100720000541b1000882cf00010039000541b10048
:1007300005425200120032000a003b008281710023
:10074000610164008100d1000080d3008984d3005e
:100750000884d3008b05e8000442e800f7ff3a0064
:10076000070037000804440089844c00000048005a
:10077000818048008b05e9000442e900f9ff3a0056
:10078000030007004f05be004f04be000000060036
:1007900081002000618055000b003d000b0020000f
:1007a00061fe2f000100e1001d0034008281710014
:1007b000610164008904d1000884d3000000e800ce
:1007c000faff3a007100200061006400030070002d
:1007d000020060000900320061044400e0844c0023
:1007e0000988a500050032008b05e8006808e100d3
:1007f00002003a008904d1000884d300f20f2000df
:100800000258e10005003d00c75ddd00f907b200b8
:100810008980750008007800000006000bf82700aa
:100820008b007800000005000004be0060ff070098
:100830000003be000405be000200be005cff07000e
:10084000844f7500000006000200be006450e10005
:10085000050036006420e100020036000968a300ac
:1008600001003a000800be000160a0004f067800b9
:100870004f05be004f04be0000000600f0ff2f0031
:08088000f1ff2700f9ff37002a
:020000040000fa
:100888000000fa002c03a9002c23a9002d83a9003d
:10089800041980000480a1000490a10004198800b4
:1008a800041980000450a0000460a0000470a00097
:1008b800041988002043a8001419800004d0a1005e
:1008c80004e0a10004f0a100141988002343a90042
:1008d800141980000420a0000430a0000440a000e7
:1008e8000450a000141988002203a90025e3a900d8
:1008f80025198000f40f2e00848262000410200065
:100908000502720024198800a4c0b30004437800cb
:1009180045322000864a78000002eb00441988001e
:100928000002eb008419880021e3a80095a0a80024
:1009380085a0a9000080fa00000006000200fa0065
:100948000002eb00040f780021e3a9000002eb008d
:100958004419880021e3a8002023a8000000000013
:100968000419800061026200e00f5200fcff3200af
:100978002003a90021e3a9000518800014188000ad
:100988008482420024188000848242003418800047
:1009980084824200441880008482420054188000f7
:1009a80084824200641880008482420074188000a7
:1009b8008482420084188000848242009418800057
:1009c80084824200a418800084824200b418800007
:1009d80084824200c418800084824200d4188000b7
:1009e80084824200e418800084824200f418800067
:1009f800048242004422de00040f78001e027800c0
:100a0800040078000080fa00000006000200fa00e6
:100a18000002eb00040f780021e3a9001400200075
:100a28004419880021e3a8002023a8000000000042
:100a38000419800061026200e00f5200fcff3200de
:100a48002003a90021e3a9000518800014188000dc
:100a58008482420024188000848242003418800076
:100a68008482420044188000848242005418800026
:100a780084824200641880008482420074188000d6
:100a88008482420084188000848242009418800086
:100a980084824200a418800084824200b418800036
:100aa80084824200c418800084824200d4188000e6
:100ab80084824200e418800084824200f418800096
:100ac800048242004422de00040f78001e027800ef
:100ad800040078000080fa00000006000200fa0016
:100ae8000002eb00040f780021e3a900c4002000f5
:100af8004419880021e3a8002023a8000000000072
:100b08000419800061026200e00f5200fcff32000d
:100b18002003a90021e3a90005188000141880000b
:100b280084824200241880008482420034188000a5
:100b38008482420044188000848242005418800055
:100b48008482420064188000848242007418800005
:100b580084824200841880008482420094188000b5
:100b680084824200a418800084824200b418800065
:100b780084824200c418800084824200d418800015
:100b880084824200e418800084824200f4188000c5
:100b9800048242004422de00040f78001e0278001e
:100ba800040078000080fa00000006000000fa0047
:100bb8000002eb0054088800345c200074088800a8
:100bc800940880000440a1000450a1009408880003
:100bd8008461a800240c80000400a1000410a00077
:100be8000420a000240c880005368000f40f2e0095
:100bf8008482620004202100050272000436880005
:100c0800ce42a8000002eb00140c88000002eb00a2
:100c1800040c880013e1a8000080fa000000060018
:100c28000000fa008a61a800540c80000400a100aa
:100c38000410a0000420a000540c88001536800081
:100c4800f40f2e0084826200043021000502720035
:100c580014368800ce82a8000002eb00440c8800fd
:100c68000002eb00340c88000080fa000000060047
:100c78000000fa001536800004fe2f00048262008e
:100c880014368800ce22a90005368000f40f2e0005
:100c98008482620004202100050272000436880064
:100ca800ce42a800345c2000040c88002536800061
:100cb80004fe2f000482620024368800ce62a90058
:100cc80015368000f40f2e00848262000430210063
:100cd8000502720014368800ce82a800345c200019
:100ce800340c88000080fa00000006000000fa00ba
:100cf80034092000040c88000002eb00340c880042
:100d08000080fa00000006000000fa003409200004
:100d1800340c88000002eb00040c88000080fa0004
:100d2800000006000000fa0074088000050020009a
:100d38000400be001afe07000002be006243230042
:100d4800a3f523000400be002cfe07000002be002d
:100d58000400be00f7fd07000002be000402780090
:100d6800040c880074088000050020000400be0000
:100d78000bfe07000002be0062432300a3f5230018
:100d88000400be001dfe07000002be000400be00f5
:100d9800e8fd07000002be0004027800340c880059
:100da8000080fa00000006000000fa000536800006
:100db800f40f2e000482620004368800ce42a90097
:100dc8001536800004fe2f00048262002401b3005f
:100dd80014368800ce22a800c4492000040c8800dc
:100de80015368000f40f2e00048262001436880045
:100df800ce82a9002536800004fe2f0004826200fe
:100e08003401b30024368800ce62a800740880003c
:100e1800340c88000080fa00000006000000fa0088
:100e28000002eb00040c88000002eb00340c880080
:100e38000080fa00000006000000fa00a200070087
:100e48004400070059ff070075ff07000002eb0088
:100e580014408800f1ff070001003700000000007f
:100e680014408000e10f5200fcff3a00048020008b
:100e7800144278000402fb006123b900d4fb2f0060
:100e8800f5ff2f000602420087824a002601200053
:100e980007002000860f5200878f5a0028003e0066
:100ea800046001001a0037001500370024003700dd
:100eb80023003700220037002100370020003700c8
:100ec8001f0037001e003700150037001c003700d0
:100ed8001b0037001a0037001900370018003700c8
:100ee80013003700160037001500370000003700e0
:100ef8005fff07000002eb00144088001400370071
:100f0800a9ff07000002eb0014408800100037001a
:100f1800c2ff07000002eb00144088000c003700f5
:100f280079ff07000002eb00144088000800370032
:100f38006eff07000002eb00144088000400370031
:100f4800b6ff07000002eb00144088000000000014
:100f5800c3ff37000000fa00c9e2a900c9c2a9000e
:100f6800c9a2a900cde2a800cdc2a800cda2a800c0
:100f78000080fa0000000600849fbe00861f7800eb
:100f88003400f80004002000a40188000000fa00e2
:100f9800140020001440880087c0a900cde2a900f1
:100fa800cde2a800b4118000044278000443780020
:100fb80005802000864a7800cde2a9000080fa006a
:100fc8003400f9004f0378004f02be0000400600cd
:100fd8000200fa00000f78000002eb0034088800d5
:100fe8001e0278006e22b9000402780064088800a6
:100ff800840880000440a1000450a10084088800ef
:1010080084e0a90011e1a800000000002504800088
:101018000408200004826200e00f5200fbff320047
:1010280084e0a90011e1a9000080fa000000060090
:101038000200fa00000f78000002eb0004088800a4
:101048009e0278009403200004aab90004027800e4
:1010580014088800240880000440a0000450a00060
:10106800240888008460a90005e1a80000000000a9
:101078002404800068026200e00f5200fcff320086
:101088008460a90005e1a9000080fa0000000600bc
:101098000200fa00f4232000040f78001e027800f2
:1010a80014088800240880000440a0000450a00010
:1010b800240888009460a8008460a90005e1a800bd
:1010c8000080fa00000006000000fa0035358000b4
:1010d80004fe2f00048262009400b30034358800b7
:1010e80074002000c41188000400280084118800be
:1010f800841180000410a1000420a100841188003c
:10110800044420009411880087c0a90097c0a80053
:101118000082eb00641988000080fa0000000600d5
:101128000200fa0034118000044f780004003700f0
:10113800cde2a9008560a90034118000044f780031
:10114800250480000480200004826200e00f520021
:10115800f7ff3a001e427800044078000080fa0049
:10116800000006000000fa00c8a2a8008660a900d6
:101178009660a8006360a8000080fa0000000600de
:020000040000fa
:10118800000800000400000000000000000000004b
:020000040000fa
:020000040001f9
:0457f800ad7b000085
:020000040000fa
:020000040001f9
:0457fc003f3f00002b
:00000001FF
